{
  "contractName": "Split_wallet",
  "abi": [
    {
      "constant": true,
      "inputs": [],
      "name": "owner",
      "outputs": [
        {
          "name": "",
          "type": "address"
        }
      ],
      "payable": false,
      "stateMutability": "view",
      "type": "function",
      "signature": "0x8da5cb5b"
    },
    {
      "inputs": [
        {
          "name": "_owner",
          "type": "address"
        }
      ],
      "payable": false,
      "stateMutability": "nonpayable",
      "type": "constructor",
      "signature": "constructor"
    },
    {
      "constant": false,
      "inputs": [
        {
          "name": "_to",
          "type": "address[]"
        },
        {
          "name": "_amount",
          "type": "uint256[]"
        }
      ],
      "name": "send",
      "outputs": [],
      "payable": true,
      "stateMutability": "payable",
      "type": "function",
      "signature": "0xa645ff5f"
    }
  ],
  "bytecode": "0x608060405234801561001057600080fd5b506040516020806104078339810180604052602081101561003057600080fd5b505160008054600160a060020a03909216600160a060020a03199092169190911790556103a5806100626000396000f3fe60806040526004361061004b5763ffffffff7c01000000000000000000000000000000000000000000000000000000006000350416638da5cb5b8114610050578063a645ff5f1461008e575b600080fd5b34801561005c57600080fd5b506100656101b7565b6040805173ffffffffffffffffffffffffffffffffffffffff9092168252519081900360200190f35b6101b5600480360360408110156100a457600080fd5b8101906020810181356401000000008111156100bf57600080fd5b8201836020820111156100d157600080fd5b803590602001918460208302840111640100000000831117156100f357600080fd5b919080806020026020016040519081016040528093929190818152602001838360200280828437600092019190915250929594936020810193503591505064010000000081111561014357600080fd5b82018360208201111561015557600080fd5b8035906020019184602083028401116401000000008311171561017757600080fd5b9190808060200260200160405190810160405280939291908181526020018383602002808284376000920191909152509295506101d3945050505050565b005b60005473ffffffffffffffffffffffffffffffffffffffff1681565b60005473ffffffffffffffffffffffffffffffffffffffff16331461025957604080517f08c379a000000000000000000000000000000000000000000000000000000000815260206004820152601060248201527f75736572206e6f742061776f6c6c656400000000000000000000000000000000604482015290519081900360640190fd5b80518251146102ef57604080517f08c379a000000000000000000000000000000000000000000000000000000000815260206004820152603360248201527f206c656e677468206f662061646472657373206973206e6f7420657175616c2060448201527f746f206c656e677468206f6620616d6f756e7400000000000000000000000000606482015290519081900360840190fd5b60005b8251811161037457828181518110151561030857fe5b9060200190602002015173ffffffffffffffffffffffffffffffffffffffff166108fc838381518110151561033957fe5b602090810290910101516040518115909202916000818181858888f1935050505015801561036b573d6000803e3d6000fd5b506001016102f2565b50505056fea165627a7a723058208a6ef2fb86109482420dc6823a5221305c111f7007c8312ac241cc4428a0aab50029",
  "source": "// SPDX-License-Identifier: MIT\r\npragma solidity >=0.4.22 <0.9.0;\r\n\r\ncontract Split_wallet {\r\n\r\n\taddress public owner;\r\n\r\n\tconstructor (address payable _owner) public {\r\n\t\towner = _owner;\r\n\t}\t\r\n\r\n\tfunction send(address payable[] memory _to , uint[] memory _amount) payable public onlyOwner {\r\n\r\n\t\trequire(_to.length == _amount.length, \" length of address is not equal to length of amount\");\r\n\r\n\t\tfor(uint i = 0; i <= _to.length; i++){\r\n\t\t\t_to[i].transfer(_amount[i]);\r\n\t\t}\r\n\t}\r\n\r\n\tmodifier onlyOwner(){\r\n\t\trequire(msg.sender == owner, 'user not awolled');\r\n\t\t_;\r\n\t}\r\n}",
  "sourcePath": "C:/Users/dpake/OneDrive/Desktop/Project/Block chain/Dapps 30/Day7 - Spilt payment/contracts/split_wallet.sol",
  "compiler": {
    "name": "solc",
    "version": "0.5.0+commit.1d4f565a.Emscripten.clang"
  },
  "schemaVersion": "3.0.1",
  "updatedAt": "2022-06-28T01:28:39.789Z",
  "devdoc": {
    "methods": {}
  },
  "userdoc": {
    "methods": {}
  }
}